:100000000C9457000C9474000C9474000C947400BD
:100010000C9474000C9474000C9474000C94740090
:100020000C9474000C94B5090C9474000C94740036
:100030000C9474000C947D060C9474000C94740061
:100040000C9474000C9474000C9474000C94740060
:100050000C9474000C9474000C9474000C94740050
:100060000C9474000C947400000000000000001F49
:100070001F1F1F1F1F1F4C31362063646567726589
:100080006734003E6733323E3E63333200666F6C46
:100090006C6F776572004C696E650033F720526FA4
:1000A000626F740020506F6C6F6C7500790A1124B8
:1000B0001FBECFEFD8E0DEBFCDBF11E0A0E0B1E0C2
:1000C000E6EEF2E202C005900D92AA34B107D9F72C
:1000D00021E0AAE4B1E001C01D92A53BB207E1F71F
:1000E0000E949E010C9466110C94000060E088E66A
:1000F00090E00E94AE0761E089E690E00E94AE07C2
:1001000062E08AE690E00E94AE0763E08BE690E052
:100110000E94AE0764E08CE690E00E94AE0765E0C6
:100120008DE690E00E94AE0766E08EE690E00E94C9
:10013000AE070E9421080895EF92FF920F931F933C
:10014000CF93DF93CDB7DEB72A970FB6F894DEBF13
:100150000FBECDBF8C017C018AE0E80EF11C8AE065
:10016000E4E1F1E0DE01119601900D928A95E1F74C
:10017000F801219131918F01A7E4B4E10E94E60FCB
:10018000969587959695879596958795E1E0F0E009
:10019000EC0FFD1FE80FF91F80810E94B1070E15BB
:1001A0001F05E9F62A960FB6F894DEBF0FBECDBF45
:1001B000DF91CF911F910F91FF90EF9008950F93D2
:1001C0001F93CF93DF93CDB7DEB72A970FB6F8947E
:1001D000DEBF0FBECDBF80ED97E00E94750A0E9482
:1001E000760084EA90E00E94410861E080E00E948D
:1001F000B9088BE990E00E94410883E890E00E94F2
:10020000EE0688EE93E00E94FD090E94210886E92F
:1002100090E00E94410861E080E00E94B9088DE80A
:1002200090E00E94410888EE93E00E94FD091BC007
:100230000E94C3038C010E942108B801110F880B92
:10024000990B0E9496088BE391E00E94300861E0D0
:1002500080E00E94B9088EE391E00E94300884E6B5
:1002600090E00E94FD0980E10E94B209882301F319
:1002700080E10E949E0988EE93E00E94FD090CEE49
:100280001FEF0832110538F068ED7FEF88E290E04B
:100290000E946F0906C068E270E088ED9FEF0E943F
:1002A0006F0981E00E94390A84E190E00E94FD0913
:1002B0000F5F1F4F0C33110521F760E070E080E005
:1002C00090E00E946F0919C061E0CE0101960E9482
:1002D0003F0A8C010E942108B80180E090E00E9452
:1002E000960861E080E00E94B908CE0101960E9464
:1002F0009C0084E690E00E94FD0980E10E94B20922
:10030000882311F380E10E949E090E94210886E45F
:1003100091E00E94300886E790E00E94EE060E947D
:10032000DD068111FCCF2A960FB6F894DEBF0FBE12
:10033000CDBFDF91CF911F910F910895CF93DF93A0
:10034000CDB7DEB72A970FB6F894DEBF0FBECDBF8C
:100350000E94DF0000E010E061E0CE0101960E9403
:100360003F0A8B819C818436910508F063C08D81A2
:100370009E818436910508F05DC08F819885843612
:10038000910508F057C089819A818436910508F05B
:1003900051C089859A858436910508F04BC06EE17D
:1003A00070E08EE190E00E946F0984E690E00E9488
:1003B000FD098B819C8184369105C0F58D819E81DC
:1003C0008436910598F58F8198858436910570F56E
:1003D00089819A818436910548F589859A85843684
:1003E000910520F561E0CE0101960E943F0A6BE481
:1003F00070E085EB9FEF0E946F098B819C818436B2
:100400009105A0F48D819E818436910578F48F81C9
:1004100098858436910550F489819A8184369105B6
:1004200028F489859A8584369105E0F28AE090E087
:100430000E94FD0989819A81813223E09207A8F008
:1004400068E270E088E290E00E946F0984E690E044
:100450000E94FD0960E570E080EB9FEF0E946F094C
:1004600086E990E00E94FD091CC04B815C812D81D2
:100470003E81420F531F2F813885240F351F253CA5
:10048000394008F470C029853A85820F931F883C53
:10049000910508F06BC06BE470E08BE490E00E9483
:1004A0006F0989819A818132934008F462C08B81FF
:1004B0009C818132934008F45FC08D819E8181329E
:1004C000934008F45CC08F8198858132934008F492
:1004D00059C089859A858132934008F456C00F5FD0
:1004E0001F4F6BE470E08BE490E00E946F0982E3A1
:1004F00090E00E94FD0961E0CE0101960E943F0A52
:1005000089819A8181329340D0F08B819C818132A4
:100510009340A8F08D819E818132934080F08F813D
:100520009885892B61F089859A858132934038F0CE
:1005300060E070E080E090E00E946F09FFCF60E52E
:1005400070E080EB9FEF0E946F098AE090E00E94CC
:10055000FD0902341105DCF060E070E080E090E01D
:100560000E946F0939C000E010E011C000E010E007
:100570000EC000E010E00BC000E010E008C000E09A
:1005800010E005C000E010E002C000E010E08D8146
:100590009E818538934038F06CE370E08CE390E006
:1005A0000E946F09D9CE2B813C818F81988582175B
:1005B000930738F46CE370E080E090E00E946F09EC
:1005C000CBCE2817390708F0C7CE60E070E08CE387
:1005D00090E00E946F09C0CE80E10E94B20988239A
:1005E000D9F3FFCFECE7F0E080818F7D8083089521
:1005F000811103C00E94F202089580917C00806204
:1006000080937C00089580917C0085FB882780F989
:1006100008950E940303882321F08091790090E0DF
:100620000895809178009091790008958032A0F427
:1006300097E890937A0090917C00662311F0906C7B
:1006400002C09F779064907E982B90937C0080915D
:100650007A00806480937A000895A0E0B0E0E3E33C
:10066000F3E00C941210EB0160E00E9416038091FD
:100670007A0086FDFCCF8E01C12CD12C76018091B1
:100680007A00806480937A0080917A0086FDFCCFA6
:100690000E940903C80ED91EE11CF11C015011096A
:1006A0000115110561F7CE0196958795C034D105E6
:1006B00038F48C0D9D1DBE010E94910FCB010EC020
:1006C000A7019601280F391F411D511DCA01B9010B
:1006D0009E0140E050E00E94A50FC901CDB7DEB7F2
:1006E000E8E00C942E10CF92DF92EF92FF92A0914F
:1006F0000001B09101019C010E94E60F6B017C0199
:100700000E940303882359F0C701B60161587F4F47
:100710008F4F9F4F2FEF30E040E050E00AC0C701FD
:10072000B60161507E4F8F4F9F4F2FEF33E040E077
:1007300050E00E94A50FC901FF90EF90DF90CF908D
:1007400008950E942D030E94730308951F93CF9371
:10075000DF930E940303182F0E94F2026AE070E008
:1007600086E00E94A103EC01812F0E94F802CE01D5
:10077000880F991F8C0F9D1F019696958795DF9185
:10078000CF911F9108950E94A603089590914F0163
:10079000E0914A01F0914B01992311F0849101C03D
:1007A00080812FEB280F2A3110F4805E089580326B
:1007B00049F49F012F5F3F4F30934B0120934A0133
:1007C000EF2B31F708951F93CF93DF930E94C60359
:1007D000C0E0D0E01AE090ED980F9A30B8F49E0196
:1007E000129FE001139FD00D1124C80FD11D87FD6A
:1007F000DA95E09780914A0190914B010196909390
:100800004B0180934A010E94C603E5CFCE01DF91E0
:10081000CF911F91089510926F0083E28093800022
:1008200081E1809381001092820080E197E29093B1
:1008300089008093880010928B0010928A00229A7F
:10084000789408958F929F92AF92BF92DF92EF9229
:10085000FF920F931F93CF93DF935C018B01D42EF4
:1008600080914C01811105C081E080934C010E9470
:100870000B0410920B01B7FE05C0E894B7F82AE00C
:10088000F22E02C0FF24F394E09081002E2D287FE9
:10089000E22E48ECF49EC00111248A159B05E0F479
:1008A000E50151E1A51657E2B50610F0C0E1D7E227
:1008B000BE017695679580E090E06058794687465E
:1008C0009F4F4E01A12CB12CA50194010E94A50FB0
:1008D00059018E2D816024C0C8E2FC9EC02D1124D8
:1008E000D0E0CA15DB0508F4E501BE0176956795F1
:1008F0009E0140E050E08AE0F81207C080E090E0FE
:10090000605E734481449F4F06C080E090E0605376
:100910007D4E8C4E9F4F0E94A50F59018E2D8260F7
:10092000882E2AE0F21207C0CE0105966AE070E038
:100930000E94910FEB01C83E43E0D40759F09801A3
:10094000DE010E94E60F28EE33E040E050E00E9416
:10095000C70F890110926F0080928100B0928900C8
:10096000A092880020918800309189004D2D40315F
:1009700008F04FE080E190E0841B9109A90102C0DA
:10098000569547958A95E2F750938B0040938A00DD
:10099000109352010093510186B38FEF86BB81E023
:1009A00080936F00DF91CF911F910F91FF90EF9097
:1009B000DF90BF90AF909F908F900895CF93DF937B
:1009C000EB018F3F11F0411105C040E0BE0188EE00
:1009D00093E043C0813130F050EF580F503618F09B
:1009E0005FE501C050E0852F6CE00E94850F682F05
:1009F00074EF760390011124250F311D2C30310541
:100A000040F4F901EE0FFF1FE25EFE4F20813181BD
:100A100002C020E030E0873081F0082E02C0220FB3
:100A2000331F0A94E2F7823028F0C90105966AE084
:100A300070E00CC0C90190580CC0C90136E0880FA5
:100A4000991F3A95E1F7029665E070E00E94910FD8
:100A5000CB01403108F04FE0BE010E942204DF913B
:100A6000CF910895A2E0B0E0E8E3F5E00C940A101D
:100A700090900A0180914E01882321F060914D01F0
:100A8000611117C077247394B0ECAB2EBDE5BB2E7B
:100A90001AE0612E04E0802E80EDC82E87E0D82E6B
:100AA00094E0E92EF12C04EF11E02FE0422E512CBE
:100AB00015C070E040E088EE93E00E94220410929E
:100AC0004D0117C18636D4F5813609F4A9C07CF5ED
:100AD0008C3309F460C08E3381F493940E94C60372
:100AE00020914A0130914B012F5F3F4F30934B01D2
:100AF00020934A01853631F752C0813209F08BC00C
:100B000080920A01D0920901C0920801F092070177
:100B1000E092060110930501009304015092030135
:100B20004092020110924E01A4E09A2ED7CF833654
:100B3000A1F10CF478C010E082E077C08D36C1F1ED
:100B400094F4873691F174F18C3609F064C00E94F8
:100B5000E303BC0190930701809306018091080193
:100B60009091090151C08237C9F14CF48F3609F0D8
:100B700052C00E94E303982E80930A01AFCF8437BE
:100B800081F1863709F047C00E94E3039093030187
:100B900080930201A3CF9A94A1CF10E020C010E06F
:100BA00084E043C010E085E040C010E087E03DC035
:100BB0000E94C6038C3619F410924E0104C0709244
:100BC0004E0110924D0120914A0130914B012F5F4F
:100BD0003F4F30934B0120934A0180CF11E080E0DA
:100BE00024C00E94E303BC01C5010E94910F669ED0
:100BF000C001679E900D1124909309018093080114
:100C000060910601709107010E94910F7093050198
:100C10006093040163CF10924B0110924A0169C0A6
:100C200010E089E002C010E08BE0082F9CE0999E64
:100C3000000D11240E94C603982F977F933261F410
:100C400020914A0130914B012F5F3F4F30934B0170
:100C500020934A010F5FEECF8D3271F420914A014B
:100C600030914B012F5F3F4F30934B0120934A014E
:100C700001500E94C603F0CF6091040170910501FC
:100C80008153883050F4E0900801F09009010E94EF
:100C9000E303BC01C7010E94910F7B01F694E79426
:100CA00069837A830E94C60369817A818E3269F4EE
:100CB00020914A0130914B012F5F3F4F30934B0100
:100CC00020934A016E0D7F1DE9CF80914E0188234C
:100CD00039F09B013695279520934D01621B7109D0
:100CE00040910201112311F08FEF01C0802F0E946B
:100CF000DE042296E0E10C9426101F920F920FB6AC
:100D00000F9211242F933F934F935F936F937F9391
:100D10008F939F93AF93BF93EF93FF938091510174
:100D2000909152019C01215031093093520120933E
:100D30005101892B11F510926F00789480918100F8
:100D4000887F81608093810080E197E290938900A1
:100D50008093880010928B0010928A0081E080932B
:100D60000B0180914A0190914B01892B31F08091C8
:100D70005001811102C00E943205FF91EF91BF9195
:100D8000AF919F918F917F916F915F914F913F9123
:100D90002F910F900FBE0F901F90189580910B010F
:100DA000882349F081E020914A0130914B01232BA7
:100DB00019F480E0089581E008950E94CE06089518
:100DC00010926F0090934B0180934A0181E08093D1
:100DD0004F0110924D010E94320508950E94E006D5
:100DE000089581E090E06F9364E06A95F1F76F9168
:100DF0000197C9F708950F931F93CF93DF931AB10B
:100E000057985A98289AC0E0D0E00E94F1065C9A60
:100E10000E94F10609B15C980E94F1065C9A0E945A
:100E2000F1065C98249607FF10C0AE0160E070E008
:100E30008091530190915401A0915501B0915601B8
:100E4000481759076A077B0700F31AB9DF91CF915A
:100E50001F910F91089595B1282F217030E0220F36
:100E6000331F482F467068E0469FA0011124242BB1
:100E70009D7C292B25B99BB188708295807F9F77B7
:100E8000892B8BB95C9A0E94F1065C980E94F1064E
:100E90000895A0E0B0E0EFE4F7E00C941310C82F41
:100EA000D62EE42E8091AD01811105C081E08093A2
:100EB000AD010E94B9070E94FB0614B1D5B1FAB08A
:100EC0000BB12898DD2011F05A9A01C05A9894B1BC
:100ED000926394B9579A81E0E81629F08C2F829595
:100EE0008F700E942B078C2F8F700E942B07FAB8EF
:100EF0000BB914B9D5B9CDB7DEB7E7E00C942F1014
:100F000042E060E00E944907089542E061E00E94EB
:100F100049070895A1E0B0E0E0E9F7E00C9414106F
:100F20008C01660F660F660FE12CF12C8E2D860F5B
:100F3000806469830E948007F801EE0DFF1D849193
:100F40000E9485078FEFE81AF80A6981E8E0EE163B
:100F5000F10461F72196E6E00C9430100E948A07B4
:100F600008950E948507089541E060E00E944907C6
:100F7000089580E197E2A0E0B0E080935301909360
:100F80005401A0935501B0935601529A209A549A55
:100F90008EE190E00E94FD0983E00E94B40786E0A4
:100FA00090E00E94FD0983E00E94B40782E090E097
:100FB0000E94FD0983E00E94B40782E090E00E9455
:100FC000FD0982E00E94B40782E090E00E94FD09E2
:100FD00088E20E94800788E00E94800781E00E94EA
:100FE000800786E00E9480078CE00E9480070895B9
:100FF00081E00E9480078091590190915A01892BCC
:10100000F9F060E0A0E2262F30E070910C018091B1
:101010000D0190E00197789FA001799F500D112458
:10102000241735074CF4E0915901F0915A01E20F71
:10103000F31FA0836F5FE7CF109257011092580102
:1010400008950E94F8070895CF93DF93EC018991EA
:10105000882319F00E948507FACFDF91CF91089578
:101060000E9424080895CF93DF93EC01FE01849140
:10107000882321F00E9485072196F8CFDF91CF9138
:1010800008950E9433080895AAE0B0E0EAE4F8E089
:101090000C9412101AE05AE0C52ED12CE12CF12C40
:1010A000062FA70196010E94A50FCA01B901115090
:1010B000E1E0F0E0EC0FFD1FE10FF11D005D2AE023
:1010C000629F001911240083611571058105910546
:1010D00039F71A3058F4E1E0F0E0EC0FFD1FE10FB2
:1010E000F11D80810E9485071F5FF3CF2A96E8E0FB
:1010F0000C942E10CF92DF92EF92FF926B017C0145
:1011000097FF0BC0F094E094D094C094C11CD11C04
:10111000E11CF11C8DE20E948507C701B6010E9407
:101120004408FF90EF90DF90CF9008950E947A08D6
:101130000895A5E0B0E0EFE9F8E00C941710182F3F
:1011400080E8898380EC8A8384E98B8384ED8C83B7
:10115000FE01E60FF11D8181810F6D830E948007E2
:10116000109357016D81609358012596E3E00C942C
:1011700033100E9499080895883058F491E001C016
:10118000990F8A95EAF7892FAAE2B0E0EBE2F0E046
:1011900021C08E3060F498EF980F81E001C0880F75
:1011A0009A95EAF7A4E2B0E0E5E2F0E013C08531F9
:1011B00060F492EF980F81E001C0880F9A95EAF7EA
:1011C000A7E2B0E0E8E2F0E005C080E0A0E0B0E037
:1011D000E0E0F0E06F3F19F49081982709C06623A2
:1011E00019F09081982B04C02081982F909592231C
:1011F00090839C91982B9C93089583EF8093B000EB
:1012000084BD82E08093B10085BD1092B40010923D
:10121000B30018BC17BC60E086E00E94BC0860E028
:1012200085E00E94BC0860E08BE00E94BC0860E0A2
:1012300083E00E94BC0808958091AE01811105C031
:1012400081E08093AE010E94FD080895CF93DF9363
:10125000EC010E941C09D7FF05C0D195C195D109A9
:1012600081E001C080E0CF3FD10519F014F0CFEF4D
:10127000D0E0882319F018BCC7BD02C0C8BD17BC98
:10128000DF91CF910895CF93DF93EC010E941C0969
:10129000D7FF05C0D195C195D10981E001C080E09B
:1012A000CF3FD10519F014F0CFEFD0E0882329F01B
:1012B0001092B400C093B30004C0C093B400109265
:1012C000B300DF91CF910895CF93DF93EB010E949C
:1012D0002609CE010E944309DF91CF9108950E9413
:1012E0006409089584B18D7C84B985B1826385B920
:1012F00085E090E06F9364E06A95F1F76F91019754
:10130000C9F708958091AF01811105C081E08093F4
:10131000AF010E9472090895CF93C82F0E948209DD
:1013200083B18C23E9F38AE090E00E94FD0983B148
:101330008C23B1F383B18C23CF9108950E948C0943
:101340000895A1E0B0E0E7EAF9E00C941810898371
:101350000E94820993B19095898189232196E2E0C8
:101360000C9434100E94A10908952F928F939F939B
:101370002FB6809162019091630101968093620182
:101380009093630190E080916401891F80936401D0
:1013900090915C019C5F90935C0180915B01805116
:1013A0009742C0F090935C0180935B0180915D0156
:1013B00090915E01019680935D0190935E0190E0B3
:1013C00080915F01891F80935F0180916001891F77
:1013D000809360012FBE9F918F912F90189528EEDA
:1013E00033E0019748F0F9016F9364E06A95F1F7F3
:1013F0006F913197C9F7F5CF08950E94EF090895CD
:10140000E0E7F0E080818E7F8083A0EBB0E08C91FC
:1014100083608C93A1EBB0E08C91807F8C938C9156
:1014200082608C93B89A80818160808378940895DB
:101430008091B001811105C081E08093B0010E94CC
:10144000000A08950E94180AE0E7F0E080818E7F8C
:10145000808310925D0110925E0110925F011092E4
:10146000600110925C0110925B0180818160808339
:101470000895682F85E691E00E94210E0895462F79
:1014800020E0BC0185E691E00E94F20E08950F93E2
:10149000CF93DF9300D000D01F92CDB7DEB79C0171
:1014A00085E0E6E3F1E0DE01119601900D928A9568
:1014B000E1F7662311F00FEF01C003E145E0BE0143
:1014C0006F5F7F4F85E691E00E94190B85E691E002
:1014D0000E94F00A0E94220A0F900F900F900F9026
:1014E0000F90DF91CF910F91089560E00E94470A1D
:1014F000089585E691E00E94670F08956F9364E078
:101500006A95F1F76F910197C9F70895FC0111826F
:10151000108213821282158214821682683068F457
:1015200089E290E0918380838BE290E093838283D1
:101530008AE290E0958384831FC06E3070F483E26A
:1015400090E09183808385E290E09383828384E2BC
:1015500090E09583848368500FC0653198F486E2EB
:1015600090E09183808388E290E09383828387E296
:1015700090E0958384836E5081E001C0880F6A9566
:10158000EAF786830895A7E0B0E0E9ECFAE00C946E
:1015900016108C01FC0111821082138212821582B6
:1015A000148217821682613118F080E1808702C0B0
:1015B000FC016087F801208B642FCE0101960E9408
:1015C000860A8F81F80181878B819C81938782872E
:1015D0008D819E81958784872796E4E00C94321054
:1015E000FC01A485B585109779F08C919185892BA4
:1015F0008C93A285B3859C918185809589238C935A
:1016000088EC90E00E947E0A0895FC01A485B585CF
:10161000109771F08C919185892B8C93A285B3855D
:101620008C919185892B8C9388EC90E00E947E0AA6
:101630000895A7E0B0E0EFE1FBE00C940B107C0113
:101640004B01642F3901402F20E00E94C30A87011B
:101650000F5B1F4FF80110826701F2E4CF0ED11C1F
:10166000F60110825701F3E4AF0EB11CF5011082B0
:10167000F70177866686512CF7018085581650F55C
:10168000652C712CF401E60DF71D6081CE010196E9
:101690000E94860A2F81F701E60DF71D218B8981B3
:1016A0009A81F301EE0FFF1FEE0DFF1D92A381A3A0
:1016B0008332910511F4F80108C08632910511F4C6
:1016C000F60103C0899721F4F5018081822B808384
:1016D0005394D2CF2796EFE00C942710A0E0B0E00F
:1016E000E4E7FBE00C940D10EC015B016C0181E47C
:1016F000C80ED11CF60180807E01F2E4EF0EF11CD1
:10170000F70170808E010D5B1F4FF801908080E023
:101710009885891748F4F501E80FF11DE80FF11DD0
:10172000118210828F5FF4CF84B1F6019081892BF2
:1017300084B987B1F7019081892B87B98AB1F80103
:101740009081892B8AB985B1F6019081892B85B961
:1017500088B1F7019081892B88B98BB1F80190810C
:10176000892B8BB98AE090E00E947E0A94B1F60141
:1017700080818095892384B997B1F7018081809514
:10178000892387B99AB1F8018081809589238AB924
:1017900095B1F60180818095892385B998B1F701CB
:1017A00080818095892388B99BB1F80180818095DB
:1017B00089238BB9E090B000D090B1008091B00047
:1017C00083608093B00082E08093B1004091B200CA
:1017D00080E090E02E853F858217930720F5C0902A
:1017E000B2002C2D241B820F911D03B1081132C0B1
:1017F000F6B0F7102FC029B129112CC010C0212F2D
:1018000030E0A901440F551FF501E40FF51F608179
:101810007181672B21F11F5F2885121780F37F2CC0
:10182000802E4C2DD7CFE092B000D092B10020E0B6
:101830008885281730F5F501E20FF11DE20FF11D43
:1018400080819181892B21F48E859F85918380836E
:101850002F5FEECF03B1F6B099B010E0DDCFDE011F
:10186000A40FB51F91960D90BC91A02D4C91DE0157
:10187000A20FB31F51962C91422369F69183808366
:10188000CACFCDB7DEB7EDE00C942910EF92FF92EE
:101890000F931F93CF93DF93FC019B01F0907C008B
:1018A00000917A0047B118B180917A0086FDFCCF93
:1018B00080E09085891748F4D901A80FB11DA80FC1
:1018C000B11D1D921C928F5FF4CF97B182A18095BC
:1018D000892387B998B182A18095892388B987E83F
:1018E00080937A00E12C81A1E81610F0E12C29C048
:1018F00050E08085581718F5A52FB0E0EF01CA0F0A
:10190000DB1F8989806480937C0080917A008064E9
:1019100080937A0080917A0086FDFCCF60917800F8
:1019200070917900AA0FBB1FA20FB31F8D919C91DC
:101930001197860F971F8D939C935F5FDACFE39487
:10194000D2CF8085E816A0F4E901CE0DD11DCE0DD1
:10195000D11D61A170E0CB0195958795A881B981D2
:101960008A0F9B1F0E94910F79836883E394E9CFCC
:10197000F0927C0000937A0018B947B9CDB7DEB772
:10198000E6E00C943010A0E2B0E0E9ECFCE00C944E
:1019900013108C017B01D42E8FEF840F823018F44A
:1019A000C8010E94050BD80150968C91B701811196
:1019B00010C0C8010E946E0BC8010E94F00AB2E07C
:1019C000DB123AC0BE016F5F7F4FC8010E946E0BF1
:1019D0000FC0C8010E94460CC8010E94F00AE2E054
:1019E000DE122AC0BE016F5F7F4FC8010E94460C05
:1019F00040E0F80180854817F8F4842F90E0880FC4
:101A0000991FF701E80FF91F21E030E02C0F3D1F6F
:101A1000820F931FD8011E962D913C911F97DC01D8
:101A20008D919C91281B390B80819181820F931F8E
:101A3000918380834F5FDDCFA096E7E00C942F1059
:101A40002F923F925F926F927F928F929F92AF926E
:101A5000BF92CF92DF92EF92FF920F931F93CF939B
:101A6000DF93CDB7DEB7C056D1090FB6F894DEBF0D
:101A70000FBECDBF8C014B015A01522EDA018D9160
:101A80009C91892B31F0F40180819181892BF1F4B3
:101A900024C0D80118968C9190E0880F991F0E945D
:101AA0004510F50191838083009709F4B1C0FC01D2
:101AB00020E030E0D80118968C9190E02817390783
:101AC00014F7119211922F5F3F4FF4CFE12CF12CBC
:101AD0006E01B1E2CB0ED11C21C0F801808590E0EF
:101AE000880F991F0E944510D4018D939C930097F5
:101AF00009F48EC0FC0120E030E0D80118968C91EA
:101B000090E02817390714F7D8011E968D919C9103
:101B10001F97819391932F5F3F4FEFCF452DBE01CC
:101B20006F5B7F4FC8010E94C30CF8016084712C69
:101B3000FE01EF5BFF4FC6019E012F5F3F4F190172
:101B400020E030E0261537054CF5E114F10489F06A
:101B5000DC016D917C91408151816417750748F0DB
:101B6000D1016D917C91408151814617570748F012
:101B70000DC040815181DC014D935C93E114F1046F
:101B800079F740815181D1014D935C932F5F3F4F95
:101B9000B2E02B0E311C32960296D4CFEFEFEE1A44
:101BA000FE0AFAE0EF16F10409F0B8CF9E012F5FAC
:101BB0003F4F7901360180E090E0F801208530E068
:101BC000821793072CF5D7012D913D917D01B3012B
:101BD0006C197D09D501ED91FC91E60FF71F40814D
:101BE00051814217530710F431832083F30121916F
:101BF00031913F01D401ED91FC91E60FF71F408137
:101C000051812417350710F4318320830196D5CFF5
:101C1000C05ADF4F0FB6F894DEBF0FBECDBFDF91C5
:101C2000CF911F910F91FF90EF90DF90CF90BF90D9
:101C3000AF909F908F907F906F905F903F902F908C
:101C400008951F93CF93DF93EC01162F8FEF860F2C
:101C5000823018F0662359F014C021E0AE014E5FC7
:101C60005F4FBE01CE010E94200D123051F4AE0133
:101C70004A5F5F4FBE016C5F7F4F20E0CE010E9444
:101C8000200DDF91CF911F910895A0E0B0E0EBE42B
:101C9000FEE00C941110EC018B01B42E842F8D7F8B
:101CA00051F48C819D81892B09F497C08E819F818D
:101CB000892B09F492C08FEF8B0D823050F488810C
:101CC0009981892B09F489C08A819B81892B09F428
:101CD00084C04B2DB801CE010E94C30C780100E0F6
:101CE00010E0C12CD12C888590E0C816D9060CF0E4
:101CF00074C081E0B8120AC0EA81FB81E00FF11FD5
:101D00000190F081E02DA881B9810DC08C819D8169
:101D10002E813F81B1100CC0F901E00FF11F01903D
:101D2000F081E02DDC01A00FB11F8D919C9128C0A6
:101D3000FC01E00FF11F40815181E881F981E00F42
:101D4000F11F80819181EE85FF854817590710F4B6
:101D5000CF0104C08E0F9F1F841B950BD901A00FCC
:101D6000B11F2D913C91AA81BB81A00FB11F4D9154
:101D70005C912417350720F0E40FF51FE21BF30BED
:101D8000E81BF90BA9F0D7012D913C9140E050E000
:101D9000281B390B41095109A8EEB3E00E94F50F49
:101DA0009F0140E050E00E94C70F37FD0AC002C00B
:101DB00020E030E0293EB3E03B072CF028EE33E092
:101DC00002C020E030E0F701219331937F01FFEF63
:101DD000CF1ADF0A0E5F1F4F86CFCDB7DEB7E9E01F
:101DE0000C942D10A0E0B0E0E8EFFEE00C94081099
:101DF000EC018B01822E0E94450E2884E801412CC3
:101E0000512C320100E010E0C12CD12C7601312C94
:101E1000912C58EEA52E53E0B52E921421F1E991A4
:101E2000F991882021F0C5018E1B9F0BFC01E93C34
:101E3000F10524F4E333F10574F002C03324339444
:101E4000DF01A30192010E940010C60ED71EE81EFA
:101E5000F91E0E0F1F1F939498EE490E93E0591E22
:101E6000611C711CDACF31101EC0492D50E0415069
:101E7000510924EF31E0429FC001439F900D529FD2
:101E8000900D11242091A9013091AA01281739073A
:101E9000B4F088EE93E0489F9001499F300D589F21
:101EA000300D11240EC0980140E050E0C701B6018A
:101EB0000E94A50F3093AA012093A90102C020E03F
:101EC00030E0C901CDB7DEB7E2E10C942410CF9326
:101ED000DF93EC018A819B81009711F00E94DD1055
:101EE0008E819F81009711F00E94DD108881998179
:101EF000009711F00E94DD108C819D81009711F0F8
:101F00000E94DD10DF91CF910895991B79E004C004
:101F1000991F961708F0961B881F7A95C9F7809528
:101F20000895AA1BBB1B51E107C0AA1FBB1FA61720
:101F3000B70710F0A61BB70B881F991F5A95A9F772
:101F400080959095BC01CD010895A1E21A2EAA1B9F
:101F5000BB1BFD010DC0AA1FBB1FEE1FFF1FA21759
:101F6000B307E407F50720F0A21BB30BE40BF50B56
:101F7000661F771F881F991F1A9469F760957095DF
:101F8000809590959B01AC01BD01CF010895052E70
:101F900097FB1EF400940E94DE0F57FD07D00E94AD
:101FA000A50F07FC03D04EF40C94DE0F509540951E
:101FB000309521953F4F4F4F5F4F089590958095F5
:101FC000709561957F4F8F4F9F4F0895A29FB001ED
:101FD000B39FC001A39F700D811D1124911DB29F5D
:101FE000700D811D1124911D08950E94E60FA59F7B
:101FF000900DB49F900DA49F800D911D1124089504
:10200000B7FF0C94F50F0E94F50F821B930B0895F8
:102010002F923F924F925F926F927F928F929F92F8
:10202000AF92BF92CF92DF92EF92FF920F931F93E6
:10203000CF93DF93CDB7DEB7CA1BDB0B0FB6F89497
:10204000DEBF0FBECDBF09942A88398848885F84D7
:102050006E847D848C849B84AA84B984C884DF8048
:10206000EE80FD800C811B81AA81B981CE0FD11D2C
:102070000FB6F894DEBF0FBECDBFED010895EE0F91
:10208000FF1F0590F491E02D09940F931F93CF93B8
:10209000DF938230910510F482E090E0E091B3018B
:1020A000F091B40120E030E0A0E0B0E0309719F109
:1020B000408151810281138148175907C8F0841764
:1020C000950769F4109731F012960C9312971396B6
:1020D0001C9327C00093B3011093B40122C02115B3
:1020E000310519F04217530718F49A01BD01EF01A9
:1020F000DF01F801DBCF21153105F9F0281B390B81
:102100002430310580F48A819B816115710521F0AD
:10211000FB019383828304C09093B4018093B30145
:10212000FE01329644C0FE01E20FF31F81939193AA
:1021300022503109398328833AC02091B10130916E
:10214000B201232B41F42091100130911101309301
:10215000B2012093B10120910E0130910F012115A0
:10216000310541F42DB73EB7409112015091130152
:10217000241B350BE091B101F091B201E217F30796
:10218000A0F42E1B3F0B2817390778F0AC014E5FE7
:102190005F4F2417350748F04E0F5F1F5093B20171
:1021A0004093B1018193919302C0E0E0F0E0CF0150
:1021B000DF91CF911F910F910895CF93DF930097F7
:1021C00009F481C0FC01329713821282A091B301FD
:1021D000B091B401109781F420813181820F931F57
:1021E0002091B1013091B2012817390751F5F093D0
:1021F000B201E093B10167C0ED0120E030E0CE17FD
:10220000DF0740F44A815B819E0141155105F1F0E1
:10221000EA01F5CFD383C28340815181840F951F9A
:10222000C817D90759F488819981840F951F0296A0
:10223000918380838A819B819383828321153105D9
:1022400029F4F093B401E093B3013DC0E901FB83AD
:10225000EA8349915991C40FD51FEC17FD0761F42A
:1022600080819181840F951F0296E901998388836B
:10227000828193819B838A83E0E0F0E012968D91C6
:102280009C911397009719F0FD01DC01F7CF8D9118
:102290009C9111979D012E5F3F4F820F931F2091BC
:1022A000B1013091B2012817390769F4309729F448
:1022B0001092B4011092B30102C013821282B09343
:1022C000B201A093B101DF91CF91089510E0C6E56E
:1022D000D0E004C0FE010E943F102196C735D1070F
:0622E000C9F7F894FFCFDE
:1022E60088130F00F4010400D0070401080200005F
:1022F600B5012000200000010203040506FF9C0131
:10230600B501CF01EA0107022602470269028E02E1
:10231600B502DE020A030E0F1011126D560050723E
:0A232600657373204200476F210029
:00000001FF
