S01000003370695F617070312E7372656337
S11300000C9457000C9474000C9474000C947400B9
S11300100C9474000C9474000C9474000C9474008C
S11300200C9474000C941E090C9474000C947400C9
S11300300C9474000C94E6050C9474000C947400F5
S11300400C9474000C9474000C9474000C9474005C
S11300500C9474000C9474000C9474000C9474004C
S11300600C9474000C947400000000000000001F45
S11300701F1F1F1F1F1F4C31362063646567726585
S11300806734003E6733323E3E63333200666F6C42
S11300906C6F776572004C696E650033F720526FA0
S11300A0626F740020506F6C6F6C7500E20911244C
S11300B01FBECFEFD8E0DEBFCDBF11E0A0E0B1E0BE
S11300C0E8EBF1E202C005900D92AA34B107D9F72A
S11300D021E0AAE4B1E001C01D92A53BB207E1F71B
S11300E00E949E010C94CF100C94000060E088E6FE
S11300F090E00E94170761E089E690E00E941707EC
S113010062E08AE690E00E94170763E08BE690E0E5
S11301100E94170764E08CE690E00E94170765E0F0
S11301208DE690E00E94170766E08EE690E00E945C
S113013017070E948A070895EF92FF920F931F9367
S1130140CF93DF93CDB7DEB72A970FB6F894DEBF0F
S11301500FBECDBF8C017C018AE0E80EF11C8AE061
S1130160E4E1F1E0DE01119601900D928A95E1F748
S1130170F801219131918F01A7E4B4E10E944F0F5E
S1130180969587959695879596958795E1E0F0E005
S1130190EC0FFD1FE80FF91F80810E941A070E154E
S11301A01F05E9F62A960FB6F894DEBF0FBECDBF41
S11301B0DF91CF911F910F91FF90EF9008950F93CE
S11301C01F93CF93DF93CDB7DEB72A970FB6F8947A
S11301D0DEBF0FBECDBF80ED97E00E94DE090E9416
S11301E0760084EA90E00E94AA0761E080E00E9421
S11301F022088BE990E00E94AA0783E890E00E941D
S1130200570688EE93E00E9466090E948A0786E9F1
S113021090E00E94AA0761E080E00E9422088DE835
S113022090E00E94AA0788EE93E00E9466091BC032
S11302300E942C038C010E948A07B801110F880BBD
S1130240990B0E94FF078BE391E00E94990761E0FC
S113025080E00E9422088EE391E00E94990784E6E0
S113026090E00E94660980E10E941B09882301F343
S113027080E10E94070988EE93E00E9466090CEE73
S11302801FEF0832110538F068ED7FEF88E290E047
S11302900E94D80806C068E270E088ED9FEF0E94D3
S11302A0D80881E00E94A20984E190E00E946609D6
S11302B00F5F1F4F0C33110521F760E070E080E001
S11302C090E00E94D80819C061E0CE0101960E9416
S11302D0A8098C010E948A07B80180E090E00E947E
S11302E0FF0761E080E00E942208CE0101960E948F
S11302F09C0084E690E00E94660980E10E941B094C
S1130300882311F380E10E9407090E948A0786E48A
S113031091E00E94990786E790E00E9457060E94A8
S113032046068111FCCF2A960FB6F894DEBF0FBEA5
S1130330CDBFDF91CF911F910F910895CF93DF939C
S1130340CDB7DEB72A970FB6F894DEBF0FBECDBF88
S11303500E94DF0000E010E061E0CE0101960E94FF
S1130360A8098B819C818436910550F58D819E81ED
S11303708436910528F58F8198858436910500F59A
S113038089819A8184369105D8F489859A85843641
S11303909105B0F461E0CE0101960E94A8096EE1D6
S11303A070E08EE190E00E94D8086BE470E085EB89
S11303B09FEF0E94D80884E690E00E94660933C04B
S11303C089819A818538934070F189859A85853829
S11303D09340A8F068E270E088E290E00E94D808B8
S11303E084E690E00E94660960E570E080EB9FEF90
S11303F00E94D80886E990E00E94660914C068E269
S113040070E088E290E00E94D80884E690E00E94C0
S1130410660960E570E080EB9FEF0E94D80886E9EA
S113042090E00E9466094B815C816D817E812F8101
S1130430388589819A81840F951F860F971F820FB3
S1130440931FE985FA858E0F9F1F893B9B4060F0BF
S11304500F5F1F4F083311054CF060E070E080E03F
S113046090E00E94D80821C000E010E06538734095
S113047038F06EE670E08EE690E00E94D8086CCF0B
S11304802417350738F46EE670E080E090E00E94AF
S1130490D80862CF4217530708F05ECF60E070E0DF
S11304A08EE690E00E94D80857CF80E10E941B0995
S11304B08823D9F3FFCFECE7F0E080818F7D808340
S11304C00895811103C00E945B02089580917C000D
S11304D0806280937C00089580917C0085FB88274E
S11304E080F908950E946C02882321F0809179009C
S11304F090E0089580917800909179000895803279
S1130500A0F497E890937A0090917C00662311F010
S1130510906C02C09F779064907E982B90937C009F
S113052080917A00806480937A000895A0E0B0E01E
S1130530ECE9F2E00C947B0FEB0160E00E947F0297
S113054080917A0086FDFCCF8E01C12CD12C7601DE
S113055080917A00806480937A0080917A0086FD8D
S1130560FCCF0E947202C80ED91EE11CF11C01507E
S113057011090115110561F7CE0196958795C034CF
S1130580D10538F48C0D9D1DBE010E94FA0ECB01DD
S11305900EC0A7019601280F391F411D511DCA0124
S11305A0B9019E0140E050E00E940E0FC901CDB791
S11305B0DEB7E8E00C94970FCF92DF92EF92FF92B0
S11305C0A0910001B09101019C010E944F0F6B01A9
S11305D07C010E946C02882359F0C701B60161585E
S11305E07F4F8F4F9F4F2FEF30E040E050E00AC025
S11305F0C701B60161507E4F8F4F9F4F2FEF33E0FD
S113060040E050E00E940E0FC901FF90EF90DF9090
S1130610CF9008950E9496020E94DC0208951F93D1
S1130620CF93DF930E946C02182F0E945B026AE052
S113063070E086E00E940A03EC01812F0E946102AF
S1130640CE01880F991F8C0F9D1F01969695879553
S1130650DF91CF911F9108950E940F030895909107
S11306604F01E0914A01F0914B01992311F08491DB
S113067001C080812FEB280F2A3110F4805E089589
S1130680803249F49F012F5F3F4F30934B012093F9
S11306904A01EF2B31F708951F93CF93DF930E9404
S11306A02F03C0E0D0E01AE090ED980F9A30B8F430
S11306B09E01129FE001139FD00D1124C80FD11D7C
S11306C087FDDA95E09780914A0190914B0101965C
S11306D090934B0180934A010E942F03E5CFCE01F2
S11306E0DF91CF911F91089510926F0083E2809360
S11306F0800081E1809381001092820080E197E282
S1130700909389008093880010928B0010928A0045
S1130710229A789408958F929F92AF92BF92DF921B
S1130720EF92FF920F931F93CF93DF935C018B01A2
S1130730D42E80914C01811105C081E080934C013D
S11307400E94740310920B01B7FE05C0E894B7F839
S11307502AE0F22E02C0FF24F394E09081002E2DB3
S1130760287FE22E48ECF49EC00111248A159B05D3
S1130770E0F4E50151E1A51657E2B50610F0C0E139
S1130780D7E2BE017695679580E090E0605879469F
S113079087469F4F4E01A12CB12CA50194010E94C4
S11307A00E0F59018E2D816024C0C8E2FC9EC02D1D
S11307B01124D0E0CA15DB0508F4E501BE017695E5
S11307C067959E0140E050E08AE0F81207C080E09F
S11307D090E0605E734481449F4F06C080E090E0E7
S11307E060537D4E8C4E9F4F0E940E0F59018E2DEB
S11307F08260882E2AE0F21207C0CE0105966AE0D4
S113080070E00E94FA0EEB01C83E43E0D40759F0B1
S11308109801DE010E944F0F28EE33E040E050E0E3
S11308200E94300F890110926F0080928100B09273
S11308308900A092880020918800309189004D2D74
S1130840403108F04FE080E190E0841B9109A90158
S113085002C0569547958A95E2F750938B004093D2
S11308608A00109352010093510186B38FEF86BB27
S113087081E080936F00DF91CF911F910F91FF90E2
S1130880EF90DF90BF90AF909F908F900895CF939B
S1130890DF93EB018F3F11F0411105C040E0BE0131
S11308A088EE93E043C0813130F050EF580F50365A
S11308B018F05FE501C050E0852F6CE00E94EE0E59
S11308C0682F74EF760390011124250F311D2C300D
S11308D0310540F4F901EE0FFF1FE25EFE4F208167
S11308E0318102C020E030E0873081F0082E02C060
S11308F0220F331F0A94E2F7823028F0C9010596CB
S11309006AE070E00CC0C90190580CC0C90136E01F
S1130910880F991F3A95E1F7029665E070E00E940E
S1130920FA0ECB01403108F04FE0BE010E948B0368
S1130930DF91CF910895A2E0B0E0E1EAF4E00C94F5
S1130940730F90900A0180914E01882321F06091E9
S11309504D01611117C077247394B0ECAB2EBDE543
S1130960BB2E1AE0612E04E0802E80EDC82E87E0B5
S1130970D82E94E0E92EF12C04EF11E02FE0422E62
S1130980512C15C070E040E088EE93E00E948B0388
S113099010924D0117C18636D4F5813609F4A9C0E9
S11309A07CF58C3309F460C08E3381F493940E94F7
S11309B02F0320914A0130914B012F5F3F4F309319
S11309C04B0120934A01853631F752C0813209F038
S11309D08BC080920A01D0920901C0920801F09262
S11309E00701E0920601109305010093040150925F
S11309F003014092020110924E01A4E09A2ED7CF37
S1130A008336A1F10CF478C010E082E077C08D3613
S1130A10C1F194F4873691F174F18C3609F064C015
S1130A200E944C03BC0190930701809306018091BE
S1130A3008019091090151C08237C9F14CF48F36F5
S1130A4009F052C00E944C03982E80930A01AFCF44
S1130A50843781F1863709F047C00E944C03909394
S1130A60030180930201A3CF9A94A1CF10E020C088
S1130A7010E084E043C010E085E040C010E087E06F
S1130A803DC00E942F038C3619F410924E0104C00D
S1130A9070924E0110924D0120914A0130914B0108
S1130AA02F5F3F4F30934B0120934A0180CF11E0D9
S1130AB080E024C00E944C03BC01C5010E94FA0ED0
S1130AC0669EC001679E900D112490930901809346
S1130AD0080160910601709107010E94FA0E70935B
S1130AE005016093040163CF10924B0110924A01F7
S1130AF069C010E089E002C010E08BE0082F9CE0A0
S1130B00999E000D11240E942F03982F977F9332F2
S1130B1061F420914A0130914B012F5F3F4F309394
S1130B204B0120934A010F5FEECF8D3271F4209177
S1130B304A0130914B012F5F3F4F30934B0120937B
S1130B404A0101500E942F03F0CF6091040170917B
S1130B5005018153883050F4E0900801F0900901B8
S1130B600E944C03BC01C7010E94FA0E7B01F6945B
S1130B70E79469837A830E942F0369817A818E3294
S1130B8069F420914A0130914B012F5F3F4F30931C
S1130B904B0120934A016E0D7F1DE9CF80914E01D8
S1130BA0882339F09B013695279520934D01621BCC
S1130BB0710940910201112311F08FEF01C0802FC0
S1130BC00E9447042296E0E10C948F0F1F920F922B
S1130BD00FB60F9211242F933F934F935F936F930C
S1130BE07F938F939F93AF93BF93EF93FF938091E2
S1130BF05101909152019C012150310930935201CD
S1130C0020935101892B11F510926F0078948091F3
S1130C108100887F81608093810080E197E29093D6
S1130C2089008093880010928B0010928A0081E0E2
S1130C3080930B0180914A0190914B01892B31F0F3
S1130C4080915001811102C00E949B04FF91EF9199
S1130C50BF91AF919F918F917F916F915F914F91D0
S1130C603F912F910F900FBE0F901F901895809178
S1130C700B01882349F081E020914A0130914B0116
S1130C80232B19F480E0089581E008950E9437062B
S1130C90089510926F0090934B0180934A0181E074
S1130CA080934F0110924D010E949B0408950E946D
S1130CB04906089581E090E06F9364E06A95F1F746
S1130CC06F910197C9F708950F931F93CF93DF9303
S1130CD01AB157985A98289AC0E0D0E00E945A0650
S1130CE05C9A0E945A0609B15C980E945A065C9A62
S1130CF00E945A065C98249607FF10C0AE0160E07B
S1130D0070E08091530190915401A0915501B091EC
S1130D105601481759076A077B0700F31AB9DF9190
S1130D20CF911F910F91089595B1282F217030E034
S1130D30220F331F482F467068E0469FA0011124FC
S1130D40242B9D7C292B25B99BB188708295807FAB
S1130D509F77892B8BB95C9A0E945A065C980E94F3
S1130D605A060895A0E0B0E0E8EBF6E00C947C0F9E
S1130D70C82FD62EE42E8091AD01811105C081E0EB
S1130D808093AD010E9422070E94640614B1D5B17C
S1130D90FAB00BB12898DD2011F05A9A01C05A9884
S1130DA094B1926394B9579A81E0E81629F08C2F94
S1130DB082958F700E9494068C2F8F700E949406E7
S1130DC0FAB80BB914B9D5B9CDB7DEB7E7E00C94CE
S1130DD0980F42E060E00E94B206089542E061E0AC
S1130DE00E94B2060895A1E0B0E0E9EFF6E00C94A9
S1130DF07D0F8C01660F660F660FE12CF12C8E2D92
S1130E00860F806469830E94E906F801EE0DFF1DD8
S1130E1084910E94EE068FEFE81AF80A6981E8E0EF
S1130E20EE16F10461F72196E6E00C94990F0E9406
S1130E30F30608950E94EE06089541E060E00E94E2
S1130E40B206089580E197E2A0E0B0E080935301F8
S1130E5090935401A0935501B0935601529A209A4D
S1130E60549A8EE190E00E94660983E00E941D0777
S1130E7086E090E00E94660983E00E941D0782E0FC
S1130E8090E00E94660983E00E941D0782E090E0E2
S1130E900E94660982E00E941D0782E090E00E94A1
S1130EA0660988E20E94E90688E00E94E90681E07A
S1130EB00E94E90686E00E94E9068CE00E94E906A9
S1130EC0089581E00E94E9068091590190915A01A8
S1130ED0892BF9F060E0A0E2262F30E070910C013C
S1130EE080910D0190E00197789FA001799F500DAA
S1130EF01124241735074CF4E0915901F0915A015B
S1130F00E20FF31FA0836F5FE7CF10925701109297
S1130F10580108950E9461070895CF93DF93EC016F
S1130F208991882319F00E94EE06FACFDF91CF91C0
S1130F3008950E948D070895CF93DF93EC01FE017D
S1130F408491882321F00E94EE062196F8CFDF9148
S1130F50CF9108950E949C070895AAE0B0E0E3EBC6
S1130F60F7E00C947B0F1AE05AE0C52ED12CE12C4B
S1130F70F12C062FA70196010E940E0FCA01B90198
S1130F801150E1E0F0E0EC0FFD1FE10FF11D005DF9
S1130F902AE0629F001911240083611571058105FF
S1130FA0910539F71A3058F4E1E0F0E0EC0FFD1F39
S1130FB0E10FF11D80810E94EE061F5FF3CF2A9698
S1130FC0E8E00C94970FCF92DF92EF92FF926B01BF
S1130FD07C0197FF0BC0F094E094D094C094C11CA2
S1130FE0D11CE11CF11C8DE20E94EE06C701B60182
S1130FF00E94AD07FF90EF90DF90CF9008950E947C
S1131000E3070895A5E0B0E0E8E0F8E00C94800F71
S1131010182F80E8898380EC8A8384E98B8384EDAC
S11310208C83FE01E60FF11D8181810F6D830E9487
S1131030E906109357016D81609358012596E3E00A
S11310400C949C0F0E9402080895883058F491E093
S113105001C0990F8A95EAF7892FAAE2B0E0EBE282
S1131060F0E021C08E3060F498EF980F81E001C069
S1131070880F9A95EAF7A4E2B0E0E5E2F0E013C045
S1131080853160F492EF980F81E001C0880F9A9542
S1131090EAF7A7E2B0E0E8E2F0E005C080E0A0E013
S11310A0B0E0E0E0F0E06F3F19F49081982709C0C8
S11310B0662319F09081982B04C02081982F909575
S11310C0922390839C91982B9C93089583EF809313
S11310D0B00084BD82E08093B10085BD1092B4005D
S11310E01092B30018BC17BC60E086E00E9425088B
S11310F060E085E00E94250860E08BE00E942508FE
S113110060E083E00E94250808958091AE0181117A
S113111005C081E08093AE010E9466080895CF93D4
S1131120DF93EC010E948508D7FF05C0D195C195D6
S1131130D10981E001C080E0CF3FD10519F014F05E
S1131140CFEFD0E0882319F018BCC7BD02C0C8BDDA
S113115017BCDF91CF910895CF93DF93EC010E94E8
S11311608508D7FF05C0D195C195D10981E001C09B
S113117080E0CF3FD10519F014F0CFEFD0E0882301
S113118029F01092B400C093B30004C0C093B4001B
S11311901092B300DF91CF910895CF93DF93EB01C9
S11311A00E948F08CE010E94AC08DF91CF91089570
S11311B00E94CD08089584B18D7C84B985B1826381
S11311C085B985E090E06F9364E06A95F1F76F91DB
S11311D00197C9F708958091AF01811105C081E09D
S11311E08093AF010E94DB080895CF93C82F0E941B
S11311F0EB0883B18C23E9F38AE090E00E9466094E
S113120083B18C23B1F383B18C23CF9108950E94D1
S1131210F5080895A1E0B0E0E0E1F9E00C94810F55
S113122089830E94EB0893B1909589818923219643
S1131230E2E00C949D0F0E940A0908952F928F9367
S11312409F932FB6809162019091630101968093E0
S113125062019093630190E080916401891F8093FF
S1131260640190915C019C5F90935C0180915B01AF
S113127080519742C0F090935C0180935B01809110
S11312805D0190915E01019680935D0190935E01F2
S113129090E080915F01891F80935F0180916001DC
S11312A0891F809360012FBE9F918F912F90189575
S11312B028EE33E0019748F0F9016F9364E06A95F2
S11312C0F1F76F913197C9F7F5CF08950E94580946
S11312D00895E0E7F0E080818E7F8083A0EBB0E0AA
S11312E08C9183608C93A1EBB0E08C91807F8C9384
S11312F08C9182608C93B89A808181608083789489
S113130008958091B001811105C081E08093B001FE
S11313100E94690908950E948109E0E7F0E0808154
S11313208E7F808310925D0110925E0110925F01A6
S11313301092600110925C0110925B0180818160C7
S113134080830895682F85E691E00E948A0D0895B0
S1131350462F20E0BC0185E691E00E945B0E0895D3
S11313600F93CF93DF9300D000D01F92CDB7DEB799
S11313709C0185E0E6E3F1E0DE01119601900D9217
S11313808A95E1F7662311F00FEF01C003E145E010
S1131390BE016F5F7F4F85E691E00E94820A85E679
S11313A091E00E94590A0E948B090F900F900F90B0
S11313B00F900F90DF91CF910F91089560E00E94FC
S11313C0B009089585E691E00E94D00E08956F93C8
S11313D064E06A95F1F76F910197C9F70895FC01EC
S11313E0118210821382128215821482168268304E
S11313F068F489E290E0918380838BE290E09383A8
S113140082838AE290E0958384831FC06E3070F4F7
S113141083E290E09183808385E290E093838283EA
S113142084E290E09583848368500FC0653198F41A
S113143086E290E09183808388E290E093838283C4
S113144087E290E0958384836E5081E001C0880F29
S11314506A95EAF786830895A7E0B0E0E2E3FAE04C
S11314600C947F0F8C01FC01118210821382128272
S11314701582148217821682613118F080E1808708
S113148002C0FC016087F801208B642FCE01019615
S11314900E94EF098F81F80181878B819C8193875A
S11314A082878D819E81958784872796E4E00C94BA
S11314B09B0FFC01A485B585109779F08C919185DB
S11314C0892B8C93A285B3859C91818580958923F2
S11314D08C9388EC90E00E94E7090895FC01A485B0
S11314E0B585109771F08C919185892B8C93A28589
S11314F0B3858C919185892B8C9388EC90E00E9424
S1131500E7090895A7E0B0E0E8E8FAE00C94740F66
S11315107C014B01642F3901402F20E00E942C0AEA
S113152087010F5B1F4FF80110826701F2E4CF0EB1
S1131530D11CF60110825701F3E4AF0EB11CF50182
S11315401082F70177866686512CF701808558163C
S113155050F5652C712CF401E60DF71D6081CE0168
S113156001960E94EF092F81F701E60DF71D218BEB
S113157089819A81F301EE0FFF1FEE0DFF1D92A3E7
S113158081A38332910511F4F80108C086329105D4
S113159011F4F60103C0899721F4F5018081822BAF
S11315A080835394D2CF2796EFE00C94900FA0E061
S11315B0B0E0EDEDFAE00C94760FEC015B016C0108
S11315C081E4C80ED11CF60180807E01F2E4EF0EA6
S11315D0F11CF70170808E010D5B1F4FF8019080A4
S11315E080E09885891748F4F501E80FF11DE80FAC
S11315F0F11D118210828F5FF4CF84B1F6019081C6
S1131600892B84B987B1F7019081892B87B98AB175
S1131610F8019081892B8AB985B1F6019081892BD3
S113162085B988B1F7019081892B88B98BB1F8010C
S11316309081892B8BB98AE090E00E94E70994B1EC
S1131640F60180818095892384B997B1F70180815F
S11316508095892387B99AB1F8018081809589237F
S11316608AB995B1F60180818095892385B998B1AD
S1131670F70180818095892388B99BB1F801808125
S1131680809589238BB9E090B000D090B10080910F
S1131690B00083608093B00082E08093B1004091F9
S11316A0B20080E090E02E853F858217930720F5F5
S11316B0C090B2002C2D241B820F911D03B1081180
S11316C032C0F6B0F7102FC029B129112CC010C0B8
S11316D0212F30E0A901440F551FF501E40FF51F38
S11316E060817181672B21F11F5F2885121780F3B8
S11316F07F2C802E4C2DD7CFE092B000D092B10039
S113170020E08885281730F5F501E20FF11DE20F7E
S1131710F11D80819181892B21F48E859F85918390
S113172080832F5FEECF03B1F6B099B010E0DDCF28
S1131730DE01A40FB51F91960D90BC91A02D4C9184
S1131740DE01A20FB31F51962C91422369F69183B7
S11317508083CACFCDB7DEB7EDE00C94920FEF9241
S1131760FF920F931F93CF93DF93FC019B01F090A3
S11317707C0000917A0047B118B180917A0086FD0F
S1131780FCCF80E09085891748F4D901A80FB11DDA
S1131790A80FB11D1D921C928F5FF4CF97B182A147
S11317A08095892387B998B182A18095892388B9C6
S11317B087E880937A00E12C81A1E81610F0E12CEF
S11317C029C050E08085581718F5A52FB0E0EF0127
S11317D0CA0FDB1F8989806480937C0080917A0022
S11317E0806480937A0080917A0086FDFCCF6091BA
S11317F0780070917900AA0FBB1FA20FB31F8D91BF
S11318009C911197860F971F8D939C935F5FDACFFE
S1131810E394D2CF8085E816A0F4E901CE0DD11D62
S1131820CE0DD11D61A170E0CB0195958795A8815E
S1131830B9818A0F9B1F0E94FA0E79836883E3940F
S1131840E9CFF0927C0000937A0018B947B9CDB77C
S1131850DEB7E6E00C94990FA0E2B0E0E2E3FCE02E
S11318600C947C0F8C017B01D42E8FEF840F82307B
S113187018F4C8010E946E0AD80150968C91B701E1
S1131880811110C0C8010E94D70AC8010E94590AD8
S1131890B2E0DB123AC0BE016F5F7F4FC8010E9405
S11318A0D70A0FC0C8010E94AF0BC8010E94590A91
S11318B0E2E0DE122AC0BE016F5F7F4FC8010E94C2
S11318C0AF0B40E0F80180854817F8F4842F90E0CE
S11318D0880F991FF701E80FF91F21E030E02C0F62
S11318E03D1F820F931FD8011E962D913C911F9787
S11318F0DC018D919C91281B390B80819181820F91
S1131900931F918380834F5FDDCFA096E7E00C9413
S1131910980F2F923F925F926F927F928F929F9235
S1131920AF92BF92CF92DF92EF92FF920F931F93E9
S1131930CF93DF93CDB7DEB7C056D1090FB6F89475
S1131940DEBF0FBECDBF8C014B015A01522EDA010E
S11319508D919C91892B31F0F40180819181892BA7
S1131960F1F424C0D80118968C9190E0880F991F47
S11319700E94AE0FF50191838083009709F4B1C0F2
S1131980FC0120E030E0D80118968C9190E02817F3
S1131990390714F7119211922F5F3F4FF4CFE12CC6
S11319A0F12C6E01B1E2CB0ED11C21C0F80180856F
S11319B090E0880F991F0E94AE0FD4018D939C93E1
S11319C0009709F48EC0FC0120E030E0D80118969D
S11319D08C9190E02817390714F7D8011E968D9141
S11319E09C911F97819391932F5F3F4FEFCF452D8C
S11319F0BE016F5B7F4FC8010E942C0CF80160840C
S1131A00712CFE01EF5BFF4FC6019E012F5F3F4F1C
S1131A10190120E030E0261537054CF5E114F104F6
S1131A2089F0DC016D917C914081518164177507C7
S1131A3048F0D1016D917C9140815181461757073F
S1131A4048F00DC040815181DC014D935C93E11459
S1131A50F10479F740815181D1014D935C932F5F5B
S1131A603F4FB2E02B0E311C32960296D4CFEFEFEB
S1131A70EE1AFE0AFAE0EF16F10409F0B8CF9E015F
S1131A802F5F3F4F7901360180E090E0F801208517
S1131A9030E0821793072CF5D7012D913D917D01FC
S1131AA0B3016C197D09D501ED91FC91E60FF71F87
S1131AB0408151814217530710F431832083F3018D
S1131AC0219131913F01D401ED91FC91E60FF71F73
S1131AD0408151812417350710F431832083019606
S1131AE0D5CFC05ADF4F0FB6F894DEBF0FBECDBFBF
S1131AF0DF91CF911F910F91FF90EF90DF90CF90E6
S1131B00BF90AF909F908F907F906F905F903F9029
S1131B102F9008951F93CF93DF93EC01162F8FEF2F
S1131B20860F823018F0662359F014C021E0AE010C
S1131B304E5F5F4FBE01CE010E94890C123051F4FA
S1131B40AE014A5F5F4FBE016C5F7F4F20E0CE0164
S1131B500E94890CDF91CF911F910895A0E0B0E01D
S1131B60E4EBFDE00C947A0FEC018B01B42E842F8E
S1131B708D7F51F48C819D81892B09F497C08E81CE
S1131B809F81892B09F492C08FEF8B0D823050F422
S1131B9088819981892B09F489C08A819B81892B49
S1131BA009F484C04B2DB801CE010E942C0C78019D
S1131BB000E010E0C12CD12C888590E0C816D9062D
S1131BC00CF074C081E0B8120AC0EA81FB81E00F16
S1131BD0F11F0190F081E02DA881B9810DC08C81A5
S1131BE09D812E813F81B1100CC0F901E00FF11FDE
S1131BF00190F081E02DDC01A00FB11F8D919C912B
S1131C0028C0FC01E00FF11F40815181E881F98176
S1131C10E00FF11F80819181EE85FF8548175907F8
S1131C2010F4CF0104C08E0F9F1F841B950BD901A4
S1131C30A00FB11F2D913C91AA81BB81A00FB11FB0
S1131C404D915C912417350720F0E40FF51FE21B3A
S1131C50F30BE81BF90BA9F0D7012D913C9140E05F
S1131C6050E0281B390B41095109A8EEB3E00E944A
S1131C705E0F9F0140E050E00E94300F37FD0AC024
S1131C8002C020E030E0293EB3E03B072CF028EE10
S1131C9033E002C020E030E0F701219331937F016B
S1131CA0FFEFCF1ADF0A0E5F1F4F86CFCDB7DEB727
S1131CB0E9E00C94960FA0E0B0E0E1E6FEE00C94BD
S1131CC0710FEC018B01822E0E94AE0D2884E80175
S1131CD0412C512C320100E010E0C12CD12C7601B2
S1131CE0312C912C58EEA52E53E0B52E921421F1EF
S1131CF0E991F991882021F0C5018E1B9F0BFC010D
S1131D00E93CF10524F4E333F10574F002C0332413
S1131D103394DF01A30192010E94690FC60ED71EFE
S1131D20E81EF91E0E0F1F1F939498EE490E93E0C0
S1131D30591E611C711CDACF31101EC0492D50E0B0
S1131D404150510924EF31E0429FC001439F900D5F
S1131D50529F900D11242091A9013091AA012817B6
S1131D603907B4F088EE93E0489F9001499F300D05
S1131D70589F300D11240EC0980140E050E0C70177
S1131D80B6010E940E0F3093AA012093A90102C04C
S1131D9020E030E0C901CDB7DEB7E2E10C948D0F4D
S1131DA0CF93DF93EC018A819B81009711F00E940D
S1131DB046108E819F81009711F00E944610888101
S1131DC09981009711F00E9446108C819D810097A3
S1131DD011F00E944610DF91CF910895991B79E08C
S1131DE004C0991F961708F0961B881F7A95C9F7A7
S1131DF080950895AA1BBB1B51E107C0AA1FBB1FF6
S1131E00A617B70710F0A61BB70B881F991F5A9582
S1131E10A9F780959095BC01CD010895A1E21A2EF1
S1131E20AA1BBB1BFD010DC0AA1FBB1FEE1FFF1F7A
S1131E30A217B307E407F50720F0A21BB30BE40BCA
S1131E40F50B661F771F881F991F1A9469F7609511
S1131E507095809590959B01AC01BD01CF010895CB
S1131E60052E97FB1EF400940E94470F57FD07D0E0
S1131E700E940E0F07FC03D04EF40C94470F5095AC
S1131E804095309521953F4F4F4F5F4F0895909562
S1131E908095709561957F4F8F4F9F4F0895A29FB6
S1131EA0B001B39FC001A39F700D811D1124911D2A
S1131EB0B29F700D811D1124911D08950E944F0F32
S1131EC0A59F900DB49F900DA49F800D911D11248A
S1131ED00895B7FF0C945E0F0E945E0F821B930B54
S1131EE008952F923F924F925F926F927F928F92BA
S1131EF09F92AF92BF92CF92DF92EF92FF920F9395
S1131F001F93CF93DF93CDB7DEB7CA1BDB0B0FB69E
S1131F10F894DEBF0FBECDBF09942A88398848885B
S1131F205F846E847D848C849B84AA84B984C884F1
S1131F30DF80EE80FD800C811B81AA81B981CE0FE8
S1131F40D11D0FB6F894DEBF0FBECDBFED010895CD
S1131F50EE0FFF1F0590F491E02D09940F931F934A
S1131F60CF93DF938230910510F482E090E0E0910A
S1131F70B301F091B40120E030E0A0E0B0E030978C
S1131F8019F1408151810281138148175907C8F022
S1131F908417950769F4109731F012960C931297F1
S1131FA013961C9327C00093B3011093B40122C06D
S1131FB02115310519F04217530718F49A01BD0190
S1131FC0EF01DF01F801DBCF21153105F9F0281B02
S1131FD0390B2430310580F48A819B8161157105A8
S1131FE021F0FB019383828304C09093B401809316
S1131FF0B301FE01329644C0FE01E20FF31F819348
S1132000919322503109398328833AC02091B10138
S11320103091B201232B41F4209110013091110130
S11320203093B2012093B10120910E0130910F0140
S11320302115310541F42DB73EB74091120150915D
S11320401301241B350BE091B101F091B201E217A9
S1132050F307A0F42E1B3F0B2817390778F0AC01C7
S11320604E5F5F4F2417350748F04E0F5F1F5093A4
S1132070B2014093B1018193919302C0E0E0F0E09A
S1132080CF01DF91CF911F910F910895CF93DF93EB
S1132090009709F481C0FC01329713821282A09147
S11320A0B301B091B401109781F420813181820F82
S11320B0931F2091B1013091B2012817390751F5CE
S11320C0F093B201E093B10167C0ED0120E030E08C
S11320D0CE17DF0740F44A815B819E01411551050B
S11320E0F1F0EA01F5CFD383C28340815181840F9B
S11320F0951FC817D90759F488819981840F951FB2
S11321000296918380838A819B81938382832115A4
S1132110310529F4F093B401E093B3013DC0E90122
S1132120FB83EA8349915991C40FD51FEC17FD072E
S113213061F480819181840F951F0296E90199834E
S11321408883828193819B838A83E0E0F0E0129606
S11321508D919C911397009719F0FD01DC01F7CF45
S11321608D919C9111979D012E5F3F4F820F931F7C
S11321702091B1013091B2012817390769F43097E1
S113218029F41092B4011092B30102C01382128296
S1132190B093B201A093B101DF91CF91089510E003
S11321A0C6E5D0E004C0FE010E94A80F2196C73501
S10B21B0D107C9F7F894FFCF31
S11321B888130F00F4010400D0070401080200008A
S11321C8B5012000200000010203040506FF9C015C
S11321D8B501CF01EA0107022602470269028E020D
S11321E8B502DE020A030E0F1011126D560050726A
S10D21F8657373204200476F210055
S9030000FC
